:100000000C942A000C9447000C9447000C94470071
:100010000C9447000C9447000C94F0010C941902C6
:100020000C9442020C946B020C9447000C94470011
:100030000C9447000C9447000C9447000C94470024
:100040000C9447000C9447000C9447000C94470014
:100050000C94470011241FBECFE5D8E0DEBFCDBF12
:1000600010E0A0E6B0E0E4E6F5E002C005900D92F5
:10007000A636B107D9F720E0A6E6B0E001C01D9290
:10008000A137B207E1F70E9494020C94B0020C94DD
:100090000000843020F4683010F4423008F00895F5
:1000A00021E001C0220F6A95EAF7413079F02095EE
:1000B0008230B1F0833031F08130B1F08AB38223E5
:1000C0008ABB089581B3822381BB08958230C1F039
:1000D000833091F0813061F08AB3822B8ABB08951E
:1000E00084B3822384BB089587B3822387BB08959A
:1000F00087B3822B87BB089581B3822B81BB089580
:1001000084B3822B84BB0895843020F4683010F4CB
:10011000423008F0089521E001C0220F6A95EAF705
:10012000413079F020958230B1F0833031F0813068
:10013000B1F08BB382238BBB089582B3822382BB41
:1001400008958230C1F0833091F0813061F08BB33B
:10015000822B8BBB089585B3822385BB089588B31A
:10016000822388BB089588B3822B88BB089582B30D
:10017000822B82BB089585B3822B85BB0895843082
:1001800088F4683078F4823009F18330B1F081303E
:1001900059F089B390E002C0959587956A95E2F78A
:1001A0008170089580E0089586B390E002C095952F
:1001B00087956A95E2F78170089580B390E002C058
:1001C000959587956A95E2F78170089583B390E0DD
:1001D00002C0959587956A95E2F7817008958430FD
:1001E00048F4823051F0833021F0813021F06ABB35
:1001F000089561BB089567BB089564BB089584307A
:1002000048F4823051F0833021F0813021F06BBB13
:10021000089562BB089568BB089565BB0895843056
:1002200040F4823051F0833051F0813021F089B3B5
:10023000089580E0089586B3089583B3089580B348
:1002400008958FB780688FBF08958FB78F778FBF5E
:100250000895CF93DF930F92CDB7DEB7498341E086
:100260000E9449008981809366000F90DF91CF91B1
:10027000089590916600913019F0923021F0089520
:1002800041E00C94840040E00C948400909166005E
:10029000913019F0923021F0089540E00C948400E0
:1002A00041E00C9484008091670090916800019671
:1002B00080936700909368008A30910561F04497BD
:1002C00009F0089560E080E00E9439011092670013
:1002D00010926800089560E080E00E9446018091DD
:1002E000670090916800EBCFCF93DF9300D000D0F0
:1002F0000F92CDB7DEB749835A836B837C838D839E
:100300004130C8F48FB58E7F8FBD8FB58D7F8FBD87
:100310008EB5877F8EBD8EB58F7E8EBD6DBD5CBD6B
:1003200089B7846089BF0F900F900F900F900F9046
:10033000DF91CF910895B9F79C812D818FB58E7F84
:100340008FBD8FB58D7F8FBD8EB588608EBD8EB50C
:100350008F7E8EBD2BBD9ABD89B7806189BF0F90FE
:100360000F900F900F900F90DF91CF91089581150E
:1003700021F09EB5987F892B8EBD08958EB5887F1C
:100380008EBD08959DBD8CBD08959BBD8ABD089509
:10039000813040F46115710551F060936F007093E6
:1003A0007000089529F0823099F0833049F0089563
:1003B00061157105E1F360936D0070936E0008950F
:1003C00061157105A1F36093690070936A00089547
:1003D0006115710561F360936B0070936C00089573
:1003E0001F920F920FB60F9211242F933F934F93AA
:1003F0005F936F937F938F939F93AF93BF93EF938D
:10040000FF93E0916900F0916A00309709F0099537
:10041000FF91EF91BF91AF919F918F917F916F91DC
:100420005F914F913F912F910F900FBE0F901F90B2
:1004300018951F920F920FB60F9211242F933F938E
:100440004F935F936F937F938F939F93AF93BF93DC
:10045000EF93FF93E0916D00F0916E00309709F0FB
:100460000995FF91EF91BF91AF919F918F917F91EE
:100470006F915F914F913F912F910F900FBE0F9011
:100480001F9018951F920F920FB60F9211242F9361
:100490003F934F935F936F937F938F939F93AF930C
:1004A000BF93EF93FF93E0916B00F0916C00309756
:1004B00009F00995FF91EF91BF91AF919F918F91B5
:1004C0007F916F915F914F913F912F910F900FBE50
:1004D0000F901F9018951F920F920FB60F92112434
:1004E0002F933F934F935F936F937F938F939F933C
:1004F000AF93BF93EF93FF93E0916F00F091700083
:10050000309709F00995FF91EF91BF91AF919F91BD
:100510008F917F916F915F914F913F912F910F90AC
:100520000FBE0F901F9018950E94210141E060E0DE
:1005300080E00E942901409160005091610060912B
:10054000620070916300809164000E94740182E0F7
:100550000E94B70163E571E081E00E94C801FFCF0E
:04056000F894FFCF3D
:060564000100004FC3007E
:00000001FF
