:100000000C942A000C946B020C9494020C943C0007
:100010000C943C000C943C000C943C000C943C0070
:100020000C943C000C943C000C943C000C943C0060
:100030000C943C000C943C000C943C000C943C0050
:100040000C943C000C943C000C94BD020C943C00BD
:100050000C943C0011241FBECFE5D4E0DEBFCDBF21
:1000600020E0A0E6B0E001C01D92A736B207E1F79C
:100070000E94EE020C9408030C94000060E081E002
:100080000C947F018130910559F08230910529F05F
:10009000892B29F43E983F9808953E9A3F9A0895F7
:1000A0003E9A3F9808950F931F93CF93DF93CDB758
:1000B000DEB72A970FB6F894DEBF0FBECDBF098317
:1000C0001A832B833C834D835E836F837887898774
:1000D0009A8789819A810E9442008B819C81019735
:1000E00008F1D9F090B79F718985892B80BF96B1AF
:1000F000987F8F81892B86B997B1907E8D81892BCE
:1001000087B9379A2A960FB6F894DEBF0FBECDBFD7
:10011000DF91CF911F910F9108953D9A81E08093D7
:100120006000E0CF3D9810926000DCCF379A0895D0
:1001300037980895019738F009F008953D9A81E0C5
:100140008093600008953D98109260000895369A5B
:10015000089597B1907E892B87B9089596B1987FBD
:10016000892B86B9089590B79F71892B80BF089518
:10017000369A349BFECF349A80916000811104C07E
:1001800084B125B1922F089585B190E0880F991F11
:10019000880F991F24B12295269526952370822BCE
:1001A0000895359A089535980895339A08953398A7
:1001B0000895843020F4683010F4423008F0089537
:1001C00021E001C0220F6A95EAF7413079F02095CD
:1001D0008230B1F0833031F08130B1F08AB38223C4
:1001E0008ABB089581B3822381BB08958230C1F018
:1001F000833091F0813061F08AB3822B8ABB0895FD
:1002000084B3822384BB089587B3822387BB089578
:1002100087B3822B87BB089581B3822B81BB08955E
:1002200084B3822B84BB0895843020F4683010F4AA
:10023000423008F0089521E001C0220F6A95EAF7E4
:10024000413079F020958230B1F0833031F0813047
:10025000B1F08BB382238BBB089582B3822382BB20
:1002600008958230C1F0833091F0813061F08BB31A
:10027000822B8BBB089585B3822385BB089588B3F9
:10028000822388BB089588B3822B88BB089582B3EC
:10029000822B82BB089585B3822B85BB0895843061
:1002A00088F4683078F4823009F18330B1F081301D
:1002B00059F089B390E002C0959587956A95E2F769
:1002C0008170089580E0089586B390E002C095950E
:1002D00087956A95E2F78170089580B390E002C037
:1002E000959587956A95E2F78170089583B390E0BC
:1002F00002C0959587956A95E2F7817008958430DC
:10030000A0F4683090F421E001C0220F6A95EAF76A
:10031000823061F0833031F0813061F08BB382271D
:100320008BBB089582B3822782BB089585B3822751
:1003300085BB089588B3822788BB0895843048F42C
:10034000823051F0833021F0813021F06ABB089572
:1003500061BB089567BB089564BB0895843048F479
:10036000823051F0833021F0813021F06BBB089551
:1003700062BB089568BB089565BB0895843040F45E
:10038000823051F0833051F0813021F089B30895EB
:1003900080E0089586B3089583B3089580B30895E7
:1003A000833060F46430710548F4813040F039F1F5
:1003B0006230710571F163307105E9F008956130C3
:1003C000710538F485B78E7F85BF85B78D7F85BF72
:1003D000089551F085B76230710551F1816085BF94
:1003E00085B7826085BF089585B7816085BF85B771
:1003F0008D7F85BF089584B7806484BF0895613080
:10040000710558F485B78B7F85BF85B7877F85BF1A
:10041000089584B78F7B84BF089581F085B76230DB
:10042000710599F0846085BF85B7886085BF0895A0
:100430008E7F85BF85B7826085BF089585B784604C
:1004400085BF85B7877F85BF08958B7F85BF85B7BB
:10045000886085BF0895833050F4813020F48BB7D5
:1004600080648BBF089521F08BB780628BBF0895A5
:100470008BB780688BBF0895833050F4813020F4AF
:100480008BB78F7B8BBF089521F08BB78F7D8BBF90
:1004900008958BB78F778BBF0895813040F4611535
:1004A000710541F06093650070936600089519F03E
:1004B000823049F0089561157105E1F3609363009E
:1004C00070936400089561157105A1F36093610054
:1004D0007093620008951F920F920FB60F9211242D
:1004E0002F933F934F935F936F937F938F939F933C
:1004F000AF93BF93EF93FF93E0916500F091660097
:10050000309709F00995FF91EF91BF91AF919F91BD
:100510008F917F916F915F914F913F912F910F90AC
:100520000FBE0F901F9018951F920F920FB60F924B
:1005300011242F933F934F935F936F937F938F93E8
:100540009F93AF93BF93EF93FF93E0916300F0917C
:100550006400309709F00995FF91EF91BF91AF9139
:100560009F918F917F916F915F914F913F912F91CB
:100570000F900FBE0F901F9018951F920F920FB6FD
:100580000F9211242F933F934F935F936F937F9319
:100590008F939F93AF93BF93EF93FF93E09161008D
:1005A000F0916200309709F00995FF91EF91BF91AA
:1005B000AF919F918F917F916F915F914F913F91FB
:1005C0002F910F900FBE0F901F9018958FB78068D6
:1005D0008FBF08958FB78F778FBF089541E060E098
:1005E00081E00E94D90040E062E083E00E94D900EF
:1005F0006EE370E080E00E944D0261E070E080E018
:100600000E94D00180E00E942B020E94E602FFCFF0
:04061000F894FFCF8C
:00000001FF
