:100000000C942A000C943C000C943C000C943C0092
:100010000C943C000C943C000C946C020C949502E3
:100020000C94BE020C94E7020C943C000C943C002F
:100030000C943C000C943C000C943C000C943C0050
:100040000C943C000C943C000C943C000C943C0040
:100050000C943C0011241FBECFE5D8E0DEBFCDBF1D
:1000600020E0A0E6B0E001C01D92AD36B207E1F796
:100070000E9410030C944A040C94000080916000CC
:1000800081110DC00E944002809363009093640030
:1000900080E00E942D0281E08093600008950E941C
:1000A0004002809361009093620081E00E942D02E3
:1000B00080E0809360000895CF93DF9300D000D05C
:1000C0000F92CDB7DEB742E050E060E070E080E034
:1000D0000E94BB016EE370E083E00E94440282E074
:1000E0000E941C0241E061E080E00E94BC0040E010
:1000F00066E083E00E94BC000F900F900F900F907D
:100100000F90DF91CF910C94B30141E061E080E06A
:100110000E94F7008AE18A95F1F700C040E061E0B3
:1001200080E00C94F7008091610090916200209132
:10013000630030916400821B930B0895609161000D
:10014000709162008091630090916400681B790B4C
:1001500080E090E00E944F0328E23EE74CE05DE340
:100160000E94B50320E030E040E05FE30E94B50369
:100170000E942003CB010895843020F4683010F4ED
:10018000423008F0089521E001C0220F6A95EAF795
:10019000413079F020958230B1F0833031F08130F8
:1001A000B1F08AB382238ABB089581B3822381BBD5
:1001B00008958230C1F0833091F0813061F08AB3CC
:1001C000822B8ABB089584B3822384BB089587B3AE
:1001D000822387BB089587B3822B87BB089581B3A1
:1001E000822B81BB089584B3822B84BB0895843015
:1001F00020F4683010F4423008F0089521E001C086
:10020000220F6A95EAF7413079F020958230B1F0FB
:10021000833031F08130B1F08BB382238BBB0895F2
:1002200082B3822382BB08958230C1F0833091F083
:10023000813061F08BB3822B8BBB089585B3822311
:1002400085BB089588B3822388BB089588B3822B29
:1002500088BB089582B3822B82BB089585B3822B1D
:1002600085BB0895843088F4683078F4823009F1D1
:100270008330B1F0813059F089B390E002C0959598
:1002800087956A95E2F78170089580E0089586B3B6
:1002900090E002C0959587956A95E2F78170089580
:1002A00080B390E002C0959587956A95E2F78170DA
:1002B000089583B390E002C0959587956A95E2F71B
:1002C000817008958430A0F4683090F421E001C07A
:1002D000220F6A95EAF7823061F0833031F0813085
:1002E00061F08BB382278BBB089582B3822782BBD8
:1002F000089585B3822785BB089588B3822788BB7C
:100300000895843048F4823051F0833021F08130F8
:1003100021F06ABB089561BB089567BB089564BB73
:100320000895843048F4823051F0833021F08130D8
:1003300021F06BBB089562BB089568BB089565BB4F
:100340000895843040F4823051F0833051F0813090
:1003500021F089B3089580E0089586B3089583B3AA
:10036000089580B308958FB780688FBF08958FB7C1
:100370008F778FBF0895CF93DF9300D000D00F9277
:10038000CDB7DEB749835A836B837C838D8341303D
:10039000C8F48FB58E7F8FBD8FB58D7F8FBD8EB525
:1003A000877F8EBD8EB58F7E8EBD6DBD5CBD89B7DE
:1003B000846089BF0F900F900F900F900F90DF9186
:1003C000CF910895F1F04230A9F78FB58E7F8FBDA0
:1003D0008FB58D7F8FBD8EB5877F8EBD8EB58F7E9D
:1003E0008EBD1DBC1CBC8EB580648EBD89B780627D
:1003F00089BF0F900F900F900F900F90DF91CF91CA
:1004000008959C812D818FB58E7F8FBD8FB58D7F97
:100410008FBD8EB588608EBD8EB58F7E8EBD2BBD97
:100420009ABD89B7806189BF0F900F900F900F9090
:100430000F90DF91CF910895811521F09EB5987F9F
:10044000892B8EBD08958EB5887F8EBD08959DBD84
:100450008CBD08959BBD8ABD0895813029F018F4A4
:100460008EB58F7B8EBD08958EB580648EBD089548
:1004700089B7806289BF089589B78F7D89BF089544
:1004800086B527B5922F0895813040F46115710526
:1004900051F060936B0070936C00089529F08230E6
:1004A00099F0833049F0089561157105E1F3609387
:1004B000690070936A00089561157105A1F3609356
:1004C00065007093660008956115710561F360938E
:1004D00067007093680008951F920F920FB60F92F5
:1004E00011242F933F934F935F936F937F938F9339
:1004F0009F93AF93BF93EF93FF93E0916500F091CB
:100500006600309709F00995FF91EF91BF91AF9187
:100510009F918F917F916F915F914F913F912F911B
:100520000F900FBE0F901F9018951F920F920FB64D
:100530000F9211242F933F934F935F936F937F9369
:100540008F939F93AF93BF93EF93FF93E0916900D5
:10055000F0916A00309709F00995FF91EF91BF91F2
:10056000AF919F918F917F916F915F914F913F914B
:100570002F910F900FBE0F901F9018951F920F9202
:100580000FB60F9211242F933F934F935F936F9366
:100590007F938F939F93AF93BF93EF93FF93E091DC
:1005A0006700F0916800309709F00995FF91EF918D
:1005B000BF91AF919F918F917F916F915F914F917B
:1005C0003F912F910F900FBE0F901F9018951F9283
:1005D0000F920FB60F9211242F933F934F935F9377
:1005E0006F937F938F939F93AF93BF93EF93FF93FB
:1005F000E0916B00F0916C00309709F00995FF9144
:10060000EF91BF91AF919F918F917F916F915F918A
:100610004F913F912F910F900FBE0F901F90189503
:100620000E945C000E9485002FE788E391E0215042
:1006300080409040E1F700C000000E949E00F2CF91
:100640000E94940388F09F5798F0B92F9927B751CB
:10065000B0F0E1F0660F771F881F991F1AF0BA9566
:10066000C9F714C0B13091F00E94AE03B1E0089513
:100670000C94AE03672F782F8827B85F39F0B93F05
:10068000CCF3869577956795B395D9F73EF4909519
:100690008095709561957F4F8F4F9F4F0895E89497
:1006A00009C097FB3EF490958095709561957F4FBA
:1006B0008F4F9F4F9923A9F0F92F96E9BB27939568
:1006C000F695879577956795B795F111F8CFFAF478
:1006D000BB0F11F460FF1BC06F5F7F4F8F4F9F4FA9
:1006E00016C0882311F096E911C0772321F09EE807
:1006F000872F762F05C0662371F096E8862F70E06D
:1007000060E02AF09A95660F771F881FDAF7880F46
:100710009695879597F9089557FD9058440F551F62
:1007200059F05F3F71F04795880F97FB991F61F073
:100730009F3F79F087950895121613061406551FEA
:10074000F2CF4695F1DF08C0161617061806991F56
:10075000F1CF86957105610508940895E894BB274B
:1007600066277727CB0197F908950E94C8030C9458
:1007700039040E942B0438F00E94320420F09523A3
:1007800011F00C9422040C94280411240C94AF034F
:100790000E948C0370F3959FC1F3950F50E0551F95
:1007A000629FF001729FBB27F00DB11D639FAA27C6
:1007B000F00DB11DAA1F649F6627B00DA11D661F15
:1007C000829F2227B00DA11D621F739FB00DA11D36
:1007D000621F839FA00D611D221F749F3327A00DF0
:1007E000611D231F849F600D211D822F762F6A2F8C
:1007F00011249F5750409AF0F1F088234AF0EE0FF1
:10080000FF1FBB1F661F771F881F91505040A9F71D
:100810009E3F510580F00C9422040C94AF035F3F7F
:10082000E4F3983ED4F3869577956795B795F79559
:10083000E7959F5FC1F7FE2B880F911D96958795D1
:1008400097F9089597F99F6780E870E060E0089550
:100850009FEF80EC089500240A94161617061806D8
:100860000906089500240A941216130614060506B4
:100870000895092E0394000C11F4882352F0BB0F45
:1008800040F4BF2B11F460FF04C06F5F7F4F8F4FA8
:080890009F4F0895F894FFCF7B
:00000001FF
