:100000000C942A000C9447000C9447000C94470071
:100010000C9447000C9447000C940C050C94350587
:100020000C945E050C9487050C9447000C944700D3
:100030000C9447000C9447000C9447000C94470024
:100040000C9447000C9447000C9447000C94470014
:100050000C94470011241FBECFE5D8E0DEBFCDBF12
:1000600010E0A0E6B0E0E2E2FEE002C005900D92F2
:10007000A237B107D9F720E0A2E7B0E001C01D9296
:10008000AC37B207E1F70E94B0050C940F070C944F
:100090000000CF93C82F40E062E082E00E94970307
:1000A000C4FB442740F964E082E00E949703C5FB4B
:1000B000442740F965E082E00E949703C6FB44278D
:1000C00040F966E082E00E949703C7FB442740F9AD
:1000D00067E082E00E94970341E063E082E00E94D3
:1000E00097038FEC97E00197F1F700C0000040E024
:1000F00063E082E00E9497034C2F417064E082E04D
:100100000E949703C1FB442740F965E082E00E940A
:100110009703C2FB442740F966E082E00E94970300
:10012000C3FB442740F967E082E00E94970341E067
:1001300063E082E00E9497038FEC97E00197F1F76C
:1001400000C0000040E063E082E0CF910C94970390
:10015000CF93C82F613020F009F45FC0CF9108958C
:1001600041E062E082E00E949703C4FB442740F92B
:1001700064E082E00E949703C5FB442740F965E0F4
:1001800082E00E949703C6FB442740F966E082E0C4
:100190000E949703C7FB442740F967E082E00E9472
:1001A000970341E063E082E00E9497038FEC97E0C1
:1001B0000197F1F700C0000040E063E082E00E9498
:1001C00097034C2F417064E082E00E949703C1FBCB
:1001D000442740F965E082E00E949703C2FB442770
:1001E00040F966E082E00E949703C3FB442740F990
:1001F00067E082E00E94970341E063E082E00E94B2
:1002000097038FEC97E00197F1F700C0000040E002
:1002100063E082E0CF910C94970341E062E082E0DA
:100220000E9497036C2F82E00E943104E5CFCF93A8
:10023000DF930F92CDB7DEB78983613028F049F0A4
:100240000F90DF91CF9108950F90DF91CF910C9493
:10025000490040E062E082E00E949703698182E009
:100260000E94310441E063E082E00E9497038FEC3A
:1002700097E00197F1F700C0000040E063E082E002
:100280000F90DF91CF910C949703813018F009F40F
:1002900046C0089560EF82E00E94210441E062E0E0
:1002A00082E00E945C0341E063E082E00E945C0324
:1002B0002FEB8AED90E0215080409040E1F700C0A4
:1002C000000082E00E9449008FE99FE00197F1F76A
:1002D00000C0000088E20E9449008FEC97E001977F
:1002E000F1F700C000008CE00E9449008FEC97E01D
:1002F0000197F1F700C0000081E00E9449008FE9FA
:100300009FE00197F1F700C0000086E00E944900DD
:100310008FEC97E00197F1F700C0000008956FEFB0
:1003200082E00E94210441E062E082E00E945C03DE
:1003300041E063E082E00E945C039FEB2AED80E0F5
:10034000915020408040E1F700C0000040E062E0B2
:1003500082E00E94970368E382E00E94310441E05A
:1003600063E082E00E9497038FEC97E00197F1F73A
:1003700000C0000040E063E082E00E9497038FEC41
:1003800097E00197F1F700C0000040E062E082E0F2
:100390000E9497036EE082E00E94310441E063E036
:1003A00082E00E9497038FEC97E00197F1F700C07D
:1003B000000040E063E082E00E9497038FEC97E04A
:1003C0000197F1F700C0000040E062E082E00E9487
:1003D000970361E082E00E94310441E063E082E043
:1003E0000E9497038FEC97E00197F1F700C000009F
:1003F00040E063E082E00E9497038FE99FE001976D
:10040000F1F700C0000040E062E082E00E94970344
:1004100066E082E00E94310441E063E082E00E94F5
:1004200097038FEC97E00197F1F700C0000040E0E0
:1004300063E082E00E9497038FEC97E00197F1F769
:1004400000C0000008950F931F93CF93DF9300D057
:10045000CDB7DEB78C016983FC018081811571F015
:100460001A8269810E94A800FA81FF5FFA83F8016D
:100470008A81E80FF11D80818111F3CF0F900F90D9
:10048000DF91CF911F910F910895CF93DF930F923A
:10049000CDB7DEB7813060F051F080E8898341301C
:1004A00058F489810F90DF91CF910C944900605CE2
:1004B000606869834130A8F321F00F90DF91CF91FC
:1004C000089540E062E082E00E949703698182E043
:1004D0000E94310441E063E082E00E9497038FECC8
:1004E00097E00197F1F700C0000040E063E082E090
:1004F0000F90DF91CF910C949703EF92FF920F939F
:100500001F93CF93DF93CDB7DEB72B970FB6F89439
:10051000DEBF0FBECDBF9C016B87892B09F455C090
:1005200070E08E010F5F1F4F9DECE92E4DEC5CECEF
:10053000922F92959F70822F8F70890F932F9F70AB
:10054000890F932F92959F70890F8E9D912D112465
:10055000692F669566959C77960F891BD901A81B14
:10056000B109A49FF001A59FF00DB49FF00D1124D7
:10057000E0FD8B5F972F7F5FD801A90FB11D805DD4
:100580008C93D9019F01369527951A9788F697FD88
:100590000FC078018FEFE81AF80AE90EF11C6B859D
:1005A000F70182917F010E94A800E016F106B9F7D9
:1005B0002B960FB6F894DEBF0FBECDBFDF91CF9163
:1005C0001F910F91FF90EF90089580E32B960FB647
:1005D000F894DEBF0FBECDBFDF91CF911F910F9179
:1005E000FF90EF900C94A800CF93DF9300D000D041
:1005F0000F92CDB7DEB741E061E080E00E945C037E
:1006000040E066E083E00E945C0340E050E0BA0115
:1006100080E00E945B0481E00E94CD0482E00F90A4
:100620000F900F900F900F90DF91CF910C94BC041E
:10063000CF93DF9388B7806288BF41E061E080E0BC
:100640000E94970387EC90E00197F1F700C000004B
:1006500040E061E080E00E94970381E00E94CD04C9
:1006600008B605FEFDCF88B7806288BF0E94E0040F
:10067000EC0180E00E94CD0408B605FEFDCF0E948B
:10068000E00428B7206228BF9C012C1B3D0BE90128
:1006900081E00E94CD04BE0180E090E00E948106CE
:1006A00023EA33EE49EB50E40E94E0050E94520633
:1006B000CB01DF91CF910895843020F4683010F49D
:1006C000423008F0089521E001C0220F6A95EAF750
:1006D000413079F020958230B1F0833031F08130B3
:1006E000B1F08AB382238ABB089581B3822381BB90
:1006F00008958230C1F0833091F0813061F08AB387
:10070000822B8ABB089584B3822384BB089587B368
:10071000822387BB089587B3822B87BB089581B35B
:10072000822B81BB089584B3822B84BB08958430CF
:1007300020F4683010F4423008F0089521E001C040
:10074000220F6A95EAF7413079F020958230B1F0B6
:10075000833031F08130B1F08BB382238BBB0895AD
:1007600082B3822382BB08958230C1F0833091F03E
:10077000813061F08BB3822B8BBB089585B38223CC
:1007800085BB089588B3822388BB089588B3822BE4
:1007900088BB089582B3822B82BB089585B3822BD8
:1007A00085BB0895843088F4683078F4823009F18C
:1007B0008330B1F0813059F089B390E002C0959553
:1007C00087956A95E2F78170089580E0089586B371
:1007D00090E002C0959587956A95E2F7817008953B
:1007E00080B390E002C0959587956A95E2F7817095
:1007F000089583B390E002C0959587956A95E2F7D6
:10080000817008958430A0F4683090F421E001C034
:10081000220F6A95EAF7823061F0833031F081303F
:1008200061F08BB382278BBB089582B3822782BB92
:10083000089585B3822785BB089588B3822788BB36
:100840000895843048F4823051F0833021F08130B3
:1008500021F06ABB089561BB089567BB089564BB2E
:100860000895843048F4823051F0833021F0813093
:1008700021F06BBB089562BB089568BB089565BB0A
:100880000895843040F4823051F0833051F081304B
:1008900021F089B3089580E0089586B3089583B365
:1008A000089580B308958FB780688FBF08958FB77C
:1008B0008F778FBF0895CF93DF9300D000D00F9232
:1008C000CDB7DEB749835A836B837C838D834130F8
:1008D000C8F48FB58E7F8FBD8FB58D7F8FBD8EB5E0
:1008E000877F8EBD8EB58F7E8EBD6DBD5CBD89B799
:1008F000846089BF0F900F900F900F900F90DF9141
:10090000CF910895F1F04230A9F78FB58E7F8FBD5A
:100910008FB58D7F8FBD8EB5877F8EBD8EB58F7E57
:100920008EBD1DBC1CBC8EB580648EBD89B7806237
:1009300089BF0F900F900F900F900F90DF91CF9184
:1009400008959C812D818FB58E7F8FBD8FB58D7F52
:100950008FBD8EB588608EBD8EB58F7E8EBD2BBD52
:100960009ABD89B7806189BF0F900F900F900F904B
:100970000F90DF91CF910895811521F09EB5987F5A
:10098000892B8EBD08958EB5887F8EBD08959DBD3F
:100990008CBD08959BBD8ABD0895813029F018F45F
:1009A0008EB58F7B8EBD08958EB580648EBD089503
:1009B00089B7806289BF089589B78F7D89BF0895FF
:1009C00086B527B5922F0895813040F461157105E1
:1009D00051F060937A0070937B00089529F0823083
:1009E00099F0833049F0089561157105E1F3609342
:1009F000780070937900089561157105A1F36093F3
:100A000074007093750008956115710561F360932A
:100A100076007093770008951F920F920FB60F9291
:100A200011242F933F934F935F936F937F938F93F3
:100A30009F93AF93BF93EF93FF93E0917400F09176
:100A40007500309709F00995FF91EF91BF91AF9133
:100A50009F918F917F916F915F914F913F912F91D6
:100A60000F900FBE0F901F9018951F920F920FB608
:100A70000F9211242F933F934F935F936F937F9324
:100A80008F939F93AF93BF93EF93FF93E091780081
:100A9000F0917900309709F00995FF91EF91BF919E
:100AA000AF919F918F917F916F915F914F913F9106
:100AB0002F910F900FBE0F901F9018951F920F92BD
:100AC0000FB60F9211242F933F934F935F936F9321
:100AD0007F938F939F93AF93BF93EF93FF93E09197
:100AE0007600F0917700309709F00995FF91EF912A
:100AF000BF91AF919F918F917F916F915F914F9136
:100B00003F912F910F900FBE0F901F9018951F923D
:100B10000F920FB60F9211242F933F934F935F9331
:100B20006F937F938F939F93AF93BF93EF93FF93B5
:100B3000E0917A00F0917B00309709F00995FF91E0
:100B4000EF91BF91AF919F918F917F916F915F9145
:100B50004F913F912F910F900FBE0F901F901895BE
:100B600080E00E9445010E94F4020E9418038093D5
:100B700072009093730060E080E690E00E94230290
:100B800040E060E081E00E94450260E080917200F8
:100B9000909173000E947D0260E08BE690E00E94DD
:100BA000230240E060E080E00E9445022FE788E3F6
:100BB00091E0215080409040E1F700C00000D5CF87
:100BC0000E94F4050C94D5060E94CE0658F00E94AF
:100BD000C70640F029F45F3F29F00C94BE0651117E
:100BE0000C9409070C94C4060E94E60668F3992346
:100BF000B1F3552391F3951B550BBB27AA27621719
:100C00007307840738F09F5F5F4F220F331F441F25
:100C1000AA1FA9F335D00E2E3AF0E0E832D0915059
:100C20005040E695001CCAF72BD0FE2F29D0660F46
:100C3000771F881FBB1F261737074807AB07B0E889
:100C400009F0BB0B802DBF01FF2793585F4F3AF08F
:100C50009E3F510578F00C94BE060C9409075F3F47
:100C6000E4F3983ED4F3869577956795B795F79515
:100C70009F5FC9F7880F911D9695879597F90895FD
:100C8000E1E0660F771F881FBB1F62177307840799
:100C9000BA0720F0621B730B840BBA0BEE1F88F7A8
:100CA000E09508950E94EE0688F09F5798F0B92FBE
:100CB0009927B751B0F0E1F0660F771F881F991F91
:100CC0001AF0BA95C9F714C0B13091F00E94080724
:100CD000B1E008950C940807672F782F8827B85F34
:100CE00039F0B93FCCF3869577956795B395D9F7E9
:100CF0003EF490958095709561957F4F8F4F9F4FF3
:100D00000895E89409C097FB3EF4909580957095FE
:100D100061957F4F8F4F9F4F9923A9F0F92F96E947
:100D2000BB279395F695879577956795B795F111BC
:100D3000F8CFFAF4BB0F11F460FF1BC06F5F7F4F59
:100D40008F4F9F4F16C0882311F096E911C077236B
:100D500021F09EE8872F762F05C0662371F096E874
:100D6000862F70E060E02AF09A95660F771F881F43
:100D7000DAF7880F9695879597F9089597F99F6701
:100D800080E870E060E008959FEF80EC0895002413
:100D90000A941616170618060906089500240A94E0
:100DA00012161306140605060895092E0394000C66
:100DB00011F4882352F0BB0F40F4BF2B11F460FFF5
:100DC00004C06F5F7F4F8F4F9F4F089557FD90581E
:100DD000440F551F59F05F3F71F04795880F97FBFF
:100DE000991F61F09F3F79F08795089512161306B9
:100DF0001406551FF2CF4695F1DF08C016161706E8
:100E00001806991FF1CF869571056105089408951C
:100E1000E894BB2766277727CB0197F90895F894C4
:020E2000FFCF02
:100E220044697374616E63653A2000202020206358
:020E32006D0051
:00000001FF
