:100000000C942A000C943C000C943C000C943C0092
:100010000C943C000C943C000C943C000C943C0070
:100020000C943C000C943C000C94CC020C94F50213
:100030000C943C000C943C000C943C000C943C0050
:100040000C943C000C943C000C943C000C943C0040
:100050000C943C0011241FBECFE5D8E0DEBFCDBF1D
:1000600020E0A0E6B0E001C01D92A836B207E1F79B
:100070000E941E030C9486030C94000041E00C9433
:10008000D2000C94780140E060E080E00E94D20051
:1000900081E090E00E946F0080E090E00C9493007B
:1000A00080E090E00E94A2000C94B100809160007A
:1000B0009091610001968093600090936100833479
:1000C0009F4009F0089563E081E00E94410080ECC8
:1000D0000E948E021092600010926100089581309B
:1000E0009105A9F08230910551F0892B11F43E98C9
:1000F0003F9886B1887F866086B9379A08953E9A80
:100100003F9A86B1887F866086B9379A08953E9A6D
:100110003F9886B1887F866086B9379A0895379A66
:10012000089537980895019738F009F008953D9A99
:1001300081E08093620008953D98109262000895D6
:10014000369A089597B1907E892B87B9089596B114
:10015000987F892B86B9089590B79F71892B80BFAE
:100160000895369A349BFECF349A809162008111B3
:1001700004C084B125B1922F089585B190E0880F15
:10018000991F880F991F24B12295269526952370D3
:10019000822B0895359A089535980895339A0895D5
:1001A00033980895843020F4683010F4423008F019
:1001B000089521E001C0220F6A95EAF7413079F0F5
:1001C00020958230B1F0833031F08130B1F08AB3C4
:1001D00082238ABB089581B3822381BB0895823034
:1001E000C1F0833091F0813061F08AB3822B8ABBF9
:1001F000089584B3822384BB089587B3822387BB89
:10020000089587B3822B87BB089581B3822B81BB6E
:10021000089584B3822B84BB0895843020F4683021
:1002200010F4423008F0089521E001C0220F6A95D1
:10023000EAF7413079F020958230B1F0833031F027
:100240008130B1F08BB382238BBB089582B38223BC
:1002500082BB08958230C1F0833091F0813061F02B
:100260008BB3822B8BBB089585B3822385BB089506
:1002700088B3822388BB089588B3822B88BB0895F6
:1002800082B3822B82BB089585B3822B85BB0895F0
:10029000843088F4683078F4823009F18330B1F02A
:1002A000813059F089B390E002C0959587956A95A1
:1002B000E2F78170089580E0089586B390E002C06F
:1002C000959587956A95E2F78170089580B390E0DF
:1002D00002C0959587956A95E2F78170089583B37A
:1002E00090E002C0959587956A95E2F78170089530
:1002F0008430A0F4683090F421E001C0220F6A95A8
:10030000EAF7823061F0833031F0813061F08BB3F5
:1003100082278BBB089582B3822782BB089585B361
:10032000822785BB089588B3822788BB08958430CF
:1003300048F4823051F0833021F0813021F06ABBE3
:10034000089561BB089567BB089564BB0895843028
:1003500048F4823051F0833021F0813021F06BBBC2
:10036000089562BB089568BB089565BB0895843005
:1003700040F4823051F0833051F0813021F089B364
:10038000089580E0089586B3089583B3089580B3F7
:1003900008958FB780688FBF08958FB78F778FBF0D
:1003A0000895CF93DF93CDB7DEB728970FB6F894B3
:1003B000DEBF0FBECDBF29833A834B835C836D8341
:1003C0007E838F839887211114C083B78F7B83BF6F
:1003D00083B7877F83BF8A8182BF89B7816089BFE6
:1003E00028960FB6F894DEBF0FBECDBFDF91CF9138
:1003F00008958D819E812230A1F0233039F1213082
:1004000079F723B7206423BF23B7277F23BF009743
:1004100029F18430910509F448C00597A1F11CBE6B
:10042000DFCF23B72F7B23BF23B7286023BF2B81C8
:100430002CBF81309105D0F483B78F7E83BF83B703
:100440008F7D83BF89B7826089BFCACF23B72064FD
:1004500023BF23B7286023BF0097D9F683B78F7EC9
:1004600083BF83B78F7D83BF1CBEBACF49F1823073
:100470009105A1F0039731F783B7806183BF83B7FC
:10048000806283BFDFCF83B7806183BF83B7806221
:1004900083BF85E0809367001CBEA2CF83B78F7EA9
:1004A00083BF83B7806283BFCDCF83B78F7E83BF87
:1004B00083B7806283BF84E0809367001CBE90CFC7
:1004C00083B7806183BF83B78F7D83BFBBCFCF935B
:1004D000DF93CDB7DEB728970FB6F894DEBF0FBE17
:1004E000CDBF29833A834B835C836D837E838F8367
:1004F00098878F819885009721F093B7987F892BF3
:1005000083BF28960FB6F894DEBF0FBECDBFDF9134
:10051000CF91089583B7887F83BF089582BF0895E0
:100520008CBF0895853640F490916700953029F08E
:1005300020E0943081F02CBF0895282F30E0AFEFF9
:10054000B0E00E94550324E640E050E00E946403BE
:1005500020952CBF0895282F30E0AFEFB0E00E9427
:10056000550324E640E050E00E9464032CBF089548
:10057000813040F46115710531F06093650070932E
:100580006600089509F0089561157105E1F360931F
:1005900063007093640008951F920F920FB60F923C
:1005A00011242F933F934F935F936F937F938F9378
:1005B0009F93AF93BF93EF93FF93E0916300F0910C
:1005C0006400309709F00995FF91EF91BF91AF91C9
:1005D0009F918F917F916F915F914F913F912F915B
:1005E0000F900FBE0F901F9018951F920F920FB68D
:1005F0000F9211242F933F934F935F936F937F93A9
:100600008F939F93AF93BF93EF93FF93E091650018
:10061000F0916600309709F00995FF91EF91BF9135
:10062000AF919F918F917F916F915F914F913F918A
:100630002F910F900FBE0F901F901895CF93DF93BF
:10064000CDB7DEB728970FB6F894DEBF0FBECDBF8B
:10065000FE01319686E0DF011D928A95E9F780EC74
:100660008A8382E08F83188642E063E081E00E9403
:100670003E0029813A814B815C816D817E818F8131
:1006800098850E94D10129813A814B815C816D81DD
:100690007E818F8198850E94670266E570E080E028
:1006A0000E94B8020E94C901FFCFA29FB001B39F70
:1006B000C001A39F700D811D1124911DB29F700D6B
:1006C000811D1124911D0895A1E21A2EAA1BBB1BA6
:1006D000FD010DC0AA1FBB1FEE1FFF1FA217B3070E
:1006E000E407F50720F0A21BB30BE40BF50B661F24
:1006F000771F881F991F1A9469F7609570958095E8
:1007000090959B01AC01BD01CF010895F894FFCFF6
:00000001FF
